{
  "_format": "hh-sol-artifact-1",
  "contractName": "FlyNFT",
  "sourceName": "contracts/FlyNFT.sol",
  "abi": [
    {
      "inputs": [
        {
          "internalType": "string",
          "name": "uri",
          "type": "string"
        },
        {
          "internalType": "address",
          "name": "flyTokenAddress",
          "type": "address"
        }
      ],
      "stateMutability": "nonpayable",
      "type": "constructor"
    },
    {
      "inputs": [
        {
          "internalType": "address",
          "name": "sender",
          "type": "address"
        },
        {
          "internalType": "uint256",
          "name": "balance",
          "type": "uint256"
        },
        {
          "internalType": "uint256",
          "name": "needed",
          "type": "uint256"
        },
        {
          "internalType": "uint256",
          "name": "tokenId",
          "type": "uint256"
        }
      ],
      "name": "ERC1155InsufficientBalance",
      "type": "error"
    },
    {
      "inputs": [
        {
          "internalType": "address",
          "name": "approver",
          "type": "address"
        }
      ],
      "name": "ERC1155InvalidApprover",
      "type": "error"
    },
    {
      "inputs": [
        {
          "internalType": "uint256",
          "name": "idsLength",
          "type": "uint256"
        },
        {
          "internalType": "uint256",
          "name": "valuesLength",
          "type": "uint256"
        }
      ],
      "name": "ERC1155InvalidArrayLength",
      "type": "error"
    },
    {
      "inputs": [
        {
          "internalType": "address",
          "name": "operator",
          "type": "address"
        }
      ],
      "name": "ERC1155InvalidOperator",
      "type": "error"
    },
    {
      "inputs": [
        {
          "internalType": "address",
          "name": "receiver",
          "type": "address"
        }
      ],
      "name": "ERC1155InvalidReceiver",
      "type": "error"
    },
    {
      "inputs": [
        {
          "internalType": "address",
          "name": "sender",
          "type": "address"
        }
      ],
      "name": "ERC1155InvalidSender",
      "type": "error"
    },
    {
      "inputs": [
        {
          "internalType": "address",
          "name": "operator",
          "type": "address"
        },
        {
          "internalType": "address",
          "name": "owner",
          "type": "address"
        }
      ],
      "name": "ERC1155MissingApprovalForAll",
      "type": "error"
    },
    {
      "inputs": [
        {
          "internalType": "address",
          "name": "owner",
          "type": "address"
        }
      ],
      "name": "OwnableInvalidOwner",
      "type": "error"
    },
    {
      "inputs": [
        {
          "internalType": "address",
          "name": "account",
          "type": "address"
        }
      ],
      "name": "OwnableUnauthorizedAccount",
      "type": "error"
    },
    {
      "anonymous": false,
      "inputs": [
        {
          "indexed": true,
          "internalType": "address",
          "name": "account",
          "type": "address"
        },
        {
          "indexed": true,
          "internalType": "address",
          "name": "operator",
          "type": "address"
        },
        {
          "indexed": false,
          "internalType": "bool",
          "name": "approved",
          "type": "bool"
        }
      ],
      "name": "ApprovalForAll",
      "type": "event"
    },
    {
      "anonymous": false,
      "inputs": [
        {
          "indexed": true,
          "internalType": "address",
          "name": "previousOwner",
          "type": "address"
        },
        {
          "indexed": true,
          "internalType": "address",
          "name": "newOwner",
          "type": "address"
        }
      ],
      "name": "OwnershipTransferred",
      "type": "event"
    },
    {
      "anonymous": false,
      "inputs": [
        {
          "indexed": true,
          "internalType": "address",
          "name": "operator",
          "type": "address"
        },
        {
          "indexed": true,
          "internalType": "address",
          "name": "from",
          "type": "address"
        },
        {
          "indexed": true,
          "internalType": "address",
          "name": "to",
          "type": "address"
        },
        {
          "indexed": false,
          "internalType": "uint256[]",
          "name": "ids",
          "type": "uint256[]"
        },
        {
          "indexed": false,
          "internalType": "uint256[]",
          "name": "values",
          "type": "uint256[]"
        }
      ],
      "name": "TransferBatch",
      "type": "event"
    },
    {
      "anonymous": false,
      "inputs": [
        {
          "indexed": true,
          "internalType": "address",
          "name": "operator",
          "type": "address"
        },
        {
          "indexed": true,
          "internalType": "address",
          "name": "from",
          "type": "address"
        },
        {
          "indexed": true,
          "internalType": "address",
          "name": "to",
          "type": "address"
        },
        {
          "indexed": false,
          "internalType": "uint256",
          "name": "id",
          "type": "uint256"
        },
        {
          "indexed": false,
          "internalType": "uint256",
          "name": "value",
          "type": "uint256"
        }
      ],
      "name": "TransferSingle",
      "type": "event"
    },
    {
      "anonymous": false,
      "inputs": [
        {
          "indexed": false,
          "internalType": "string",
          "name": "value",
          "type": "string"
        },
        {
          "indexed": true,
          "internalType": "uint256",
          "name": "id",
          "type": "uint256"
        }
      ],
      "name": "URI",
      "type": "event"
    },
    {
      "inputs": [],
      "name": "BOOTS",
      "outputs": [
        {
          "internalType": "uint256",
          "name": "",
          "type": "uint256"
        }
      ],
      "stateMutability": "view",
      "type": "function"
    },
    {
      "inputs": [],
      "name": "CAPUCINES_BAG",
      "outputs": [
        {
          "internalType": "uint256",
          "name": "",
          "type": "uint256"
        }
      ],
      "stateMutability": "view",
      "type": "function"
    },
    {
      "inputs": [],
      "name": "DIONYSUS_BAG",
      "outputs": [
        {
          "internalType": "uint256",
          "name": "",
          "type": "uint256"
        }
      ],
      "stateMutability": "view",
      "type": "function"
    },
    {
      "inputs": [],
      "name": "DIOR_RTW",
      "outputs": [
        {
          "internalType": "uint256",
          "name": "",
          "type": "uint256"
        }
      ],
      "stateMutability": "view",
      "type": "function"
    },
    {
      "inputs": [],
      "name": "GUCCI_YELLOW_RTW",
      "outputs": [
        {
          "internalType": "uint256",
          "name": "",
          "type": "uint256"
        }
      ],
      "stateMutability": "view",
      "type": "function"
    },
    {
      "inputs": [],
      "name": "PUMPS",
      "outputs": [
        {
          "internalType": "uint256",
          "name": "",
          "type": "uint256"
        }
      ],
      "stateMutability": "view",
      "type": "function"
    },
    {
      "inputs": [],
      "name": "SAC_DE_JOUR",
      "outputs": [
        {
          "internalType": "uint256",
          "name": "",
          "type": "uint256"
        }
      ],
      "stateMutability": "view",
      "type": "function"
    },
    {
      "inputs": [],
      "name": "SANDALS",
      "outputs": [
        {
          "internalType": "uint256",
          "name": "",
          "type": "uint256"
        }
      ],
      "stateMutability": "view",
      "type": "function"
    },
    {
      "inputs": [],
      "name": "SL_PINK_RTW",
      "outputs": [
        {
          "internalType": "uint256",
          "name": "",
          "type": "uint256"
        }
      ],
      "stateMutability": "view",
      "type": "function"
    },
    {
      "inputs": [
        {
          "internalType": "address",
          "name": "account",
          "type": "address"
        },
        {
          "internalType": "uint256",
          "name": "id",
          "type": "uint256"
        }
      ],
      "name": "balanceOf",
      "outputs": [
        {
          "internalType": "uint256",
          "name": "",
          "type": "uint256"
        }
      ],
      "stateMutability": "view",
      "type": "function"
    },
    {
      "inputs": [
        {
          "internalType": "address[]",
          "name": "accounts",
          "type": "address[]"
        },
        {
          "internalType": "uint256[]",
          "name": "ids",
          "type": "uint256[]"
        }
      ],
      "name": "balanceOfBatch",
      "outputs": [
        {
          "internalType": "uint256[]",
          "name": "",
          "type": "uint256[]"
        }
      ],
      "stateMutability": "view",
      "type": "function"
    },
    {
      "inputs": [
        {
          "internalType": "uint256",
          "name": "id",
          "type": "uint256"
        },
        {
          "internalType": "uint256",
          "name": "amount",
          "type": "uint256"
        }
      ],
      "name": "buyFraction",
      "outputs": [],
      "stateMutability": "nonpayable",
      "type": "function"
    },
    {
      "inputs": [],
      "name": "flyToken",
      "outputs": [
        {
          "internalType": "contract IERC20",
          "name": "",
          "type": "address"
        }
      ],
      "stateMutability": "view",
      "type": "function"
    },
    {
      "inputs": [
        {
          "internalType": "address",
          "name": "account",
          "type": "address"
        },
        {
          "internalType": "address",
          "name": "operator",
          "type": "address"
        }
      ],
      "name": "isApprovedForAll",
      "outputs": [
        {
          "internalType": "bool",
          "name": "",
          "type": "bool"
        }
      ],
      "stateMutability": "view",
      "type": "function"
    },
    {
      "inputs": [],
      "name": "owner",
      "outputs": [
        {
          "internalType": "address",
          "name": "",
          "type": "address"
        }
      ],
      "stateMutability": "view",
      "type": "function"
    },
    {
      "inputs": [
        {
          "internalType": "uint256",
          "name": "",
          "type": "uint256"
        }
      ],
      "name": "pricePerFraction",
      "outputs": [
        {
          "internalType": "uint256",
          "name": "",
          "type": "uint256"
        }
      ],
      "stateMutability": "view",
      "type": "function"
    },
    {
      "inputs": [],
      "name": "renounceOwnership",
      "outputs": [],
      "stateMutability": "nonpayable",
      "type": "function"
    },
    {
      "inputs": [
        {
          "internalType": "address",
          "name": "from",
          "type": "address"
        },
        {
          "internalType": "address",
          "name": "to",
          "type": "address"
        },
        {
          "internalType": "uint256[]",
          "name": "ids",
          "type": "uint256[]"
        },
        {
          "internalType": "uint256[]",
          "name": "values",
          "type": "uint256[]"
        },
        {
          "internalType": "bytes",
          "name": "data",
          "type": "bytes"
        }
      ],
      "name": "safeBatchTransferFrom",
      "outputs": [],
      "stateMutability": "nonpayable",
      "type": "function"
    },
    {
      "inputs": [
        {
          "internalType": "address",
          "name": "from",
          "type": "address"
        },
        {
          "internalType": "address",
          "name": "to",
          "type": "address"
        },
        {
          "internalType": "uint256",
          "name": "id",
          "type": "uint256"
        },
        {
          "internalType": "uint256",
          "name": "value",
          "type": "uint256"
        },
        {
          "internalType": "bytes",
          "name": "data",
          "type": "bytes"
        }
      ],
      "name": "safeTransferFrom",
      "outputs": [],
      "stateMutability": "nonpayable",
      "type": "function"
    },
    {
      "inputs": [
        {
          "internalType": "address",
          "name": "operator",
          "type": "address"
        },
        {
          "internalType": "bool",
          "name": "approved",
          "type": "bool"
        }
      ],
      "name": "setApprovalForAll",
      "outputs": [],
      "stateMutability": "nonpayable",
      "type": "function"
    },
    {
      "inputs": [
        {
          "internalType": "uint256",
          "name": "id",
          "type": "uint256"
        },
        {
          "internalType": "uint256",
          "name": "newPrice",
          "type": "uint256"
        }
      ],
      "name": "setPrice",
      "outputs": [],
      "stateMutability": "nonpayable",
      "type": "function"
    },
    {
      "inputs": [
        {
          "internalType": "string",
          "name": "newuri",
          "type": "string"
        }
      ],
      "name": "setURI",
      "outputs": [],
      "stateMutability": "nonpayable",
      "type": "function"
    },
    {
      "inputs": [
        {
          "internalType": "bytes4",
          "name": "interfaceId",
          "type": "bytes4"
        }
      ],
      "name": "supportsInterface",
      "outputs": [
        {
          "internalType": "bool",
          "name": "",
          "type": "bool"
        }
      ],
      "stateMutability": "view",
      "type": "function"
    },
    {
      "inputs": [
        {
          "internalType": "address",
          "name": "newOwner",
          "type": "address"
        }
      ],
      "name": "transferOwnership",
      "outputs": [],
      "stateMutability": "nonpayable",
      "type": "function"
    },
    {
      "inputs": [
        {
          "internalType": "uint256",
          "name": "",
          "type": "uint256"
        }
      ],
      "name": "uri",
      "outputs": [
        {
          "internalType": "string",
          "name": "",
          "type": "string"
        }
      ],
      "stateMutability": "view",
      "type": "function"
    }
  ],
  "bytecode": "0x60a06040523480156200001157600080fd5b50604051620024c3380380620024c3833981016040819052620000349162000958565b3382620000418162000373565b506001600160a01b0381166200007257604051631e4fbdf760e01b8152600060048201526024015b60405180910390fd5b6200007d8162000385565b506001600160a01b038116608052604080516020810190915260008152620000ad903090600190606490620003d7565b620000d2306002606460405180602001604052806000815250620003d760201b60201c565b620000f7306003606460405180602001604052806000815250620003d760201b60201c565b6200011c306004609660405180602001604052806000815250620003d760201b60201c565b62000141306005609660405180602001604052806000815250620003d760201b60201c565b6200016630600660c860405180602001604052806000815250620003d760201b60201c565b6200018b30600760c860405180602001604052806000815250620003d760201b60201c565b620001b030600860c860405180602001604052806000815250620003d760201b60201c565b620001d530600960c860405180602001604052806000815250620003d760201b60201c565b505060046020526803cb71f51fc55800007fabd6e7cb50984ff9c2f3e18a2660c3353dadf4e3291deeb275dae2cd1e44fe05556801a055690d9db800007f91da3fd0782e51c6b3986e9e672fd566868e71f3dbc2d6c2cd6fbb3e361af2a7556801e5b8fa8fe2ac00007f2e174c10e159ea99b867ce3205125c24a42d128804e4070ed6fcc8cc98166aa0556801314fb370629800007f1a1e6821cde7d0159c0d293177871e09677b4e42307c7db3ba94f8648a5a050f556801236efcbcbb3400007f04cde762ef08b6b6c5ded8e8c4c0b3f4e5c9ad7342c88fcc93681b4588b73f055568015af1d78b58c400007fc59312466997bb42aaaf719ece141047820e6b34531e1670dc1852a453648f0f556802b5e3af16b18800007fbeb3bad75134cb432e5707980e3245c52c5998a1125ee30f2f0dbf3925b1e551556803860e639d806400007f2645749a946633740611cfc8178319f0958659d6922e4bf7e3a08b44789f53a45560096000526802fb474098f67c00007f4ad5a04d53b5856f318545bb721f67d3f6d0a5a999f25eec7e20eaeb4c47b9335562000d45565b600262000381828262000ab0565b5050565b600380546001600160a01b038381166001600160a01b0319831681179093556040519116919082907f8be0079c531659141344cd1fd0a4f28419497f9722a3daafe3b4186f6b6457e090600090a35050565b6001600160a01b0384166200040357604051632bfa23e760e11b81526000600482015260240162000069565b604080516001808252602082018690528183019081526060820185905260808201909252906200043860008784848762000440565b505050505050565b6200044e85858585620004a3565b6001600160a01b038416156200049c57825133906001036200048c576020848101519084015162000484838989858589620006d1565b505062000438565b620004388187878787876200080b565b5050505050565b8051825114620004d45781518151604051635b05999160e01b81526004810192909252602482015260440162000069565b3360005b8351811015620005ed576020818102858101820151908501909101516001600160a01b038816156200058f576000828152602081815260408083206001600160a01b038c1684529091529020548181101562000568576040516303dee4c560e01b81526001600160a01b038a16600482015260248101829052604481018390526064810184905260840162000069565b6000838152602081815260408083206001600160a01b038d16845290915290209082900390555b6001600160a01b03871615620005d7576000828152602081815260408083206001600160a01b038b16845290915281208054839290620005d190849062000b92565b90915550505b505080620005e59062000bae565b9050620004d8565b508251600103620006715760208301516000906020840151909150856001600160a01b0316876001600160a01b0316846001600160a01b03167fc3d58168c5ae7397731d063d5bbf3d657854427343f4c083240f7aacaa2d0f62858560405162000661929190918252602082015260400190565b60405180910390a450506200049c565b836001600160a01b0316856001600160a01b0316826001600160a01b03167f4a39dc06d4c0dbc64b70af90fd698a233a518aa5d07e595d983b8c0526c8f7fb8686604051620006c292919062000c07565b60405180910390a45050505050565b6001600160a01b0384163b15620004385760405163f23a6e6160e01b81526001600160a01b0385169063f23a6e619062000718908990899088908890889060040162000c67565b6020604051808303816000875af192505050801562000756575060408051601f3d908101601f19168201909252620007539181019062000cae565b60015b620007c4573d80801562000787576040519150601f19603f3d011682016040523d82523d6000602084013e6200078c565b606091505b508051600003620007bc57604051632bfa23e760e11b81526001600160a01b038616600482015260240162000069565b805181602001fd5b6001600160e01b0319811663f23a6e6160e01b146200080257604051632bfa23e760e11b81526001600160a01b038616600482015260240162000069565b50505050505050565b6001600160a01b0384163b15620004385760405163bc197c8160e01b81526001600160a01b0385169063bc197c819062000852908990899088908890889060040162000ce1565b6020604051808303816000875af192505050801562000890575060408051601f3d908101601f191682019092526200088d9181019062000cae565b60015b620008c1573d80801562000787576040519150601f19603f3d011682016040523d82523d6000602084013e6200078c565b6001600160e01b0319811663bc197c8160e01b146200080257604051632bfa23e760e11b81526001600160a01b038616600482015260240162000069565b634e487b7160e01b600052604160045260246000fd5b60005b838110156200093257818101518382015260200162000918565b50506000910152565b80516001600160a01b03811681146200095357600080fd5b919050565b600080604083850312156200096c57600080fd5b82516001600160401b03808211156200098457600080fd5b818501915085601f8301126200099957600080fd5b815181811115620009ae57620009ae620008ff565b604051601f8201601f19908116603f01168101908382118183101715620009d957620009d9620008ff565b81604052828152886020848701011115620009f357600080fd5b62000a0683602083016020880162000915565b809650505050505062000a1c602084016200093b565b90509250929050565b600181811c9082168062000a3a57607f821691505b60208210810362000a5b57634e487b7160e01b600052602260045260246000fd5b50919050565b601f82111562000aab57600081815260208120601f850160051c8101602086101562000a8a5750805b601f850160051c820191505b81811015620004385782815560010162000a96565b505050565b81516001600160401b0381111562000acc5762000acc620008ff565b62000ae48162000add845462000a25565b8462000a61565b602080601f83116001811462000b1c576000841562000b035750858301515b600019600386901b1c1916600185901b17855562000438565b600085815260208120601f198616915b8281101562000b4d5788860151825594840194600190910190840162000b2c565b508582101562000b6c5787850151600019600388901b60f8161c191681555b5050505050600190811b01905550565b634e487b7160e01b600052601160045260246000fd5b8082018082111562000ba85762000ba862000b7c565b92915050565b60006001820162000bc35762000bc362000b7c565b5060010190565b600081518084526020808501945080840160005b8381101562000bfc5781518752958201959082019060010162000bde565b509495945050505050565b60408152600062000c1c604083018562000bca565b828103602084015262000c30818562000bca565b95945050505050565b6000815180845262000c5381602086016020860162000915565b601f01601f19169290920160200192915050565b6001600160a01b03868116825285166020820152604081018490526060810183905260a06080820181905260009062000ca39083018462000c39565b979650505050505050565b60006020828403121562000cc157600080fd5b81516001600160e01b03198116811462000cda57600080fd5b9392505050565b6001600160a01b0386811682528516602082015260a06040820181905260009062000d0f9083018662000bca565b828103606084015262000d23818662000bca565b9050828103608084015262000d39818562000c39565b98975050505050505050565b60805161175b62000d686000396000818161023d01526106bc015261175b6000f3fe608060405234801561001057600080fd5b50600436106101725760003560e01c8063715018a6116100de578063bcb7d1b311610097578063e985e9c511610071578063e985e9c51461030e578063f242432a14610321578063f2fde38b14610334578063f7d975771461034757600080fd5b8063bcb7d1b3146102eb578063cacbff98146102f3578063d40b0214146102fb57600080fd5b8063715018a6146102a757806371554337146102af5780637b1d4c76146102b75780638da5cb5b146102bf578063a22cb465146102d0578063a4b82ac7146102e357600080fd5b80630e89341c116101305780630e89341c146102055780632eb2c2d61461022557806335573b63146102385780633db0734b146102775780634e1273f41461027f57806353bc754f1461029f57600080fd5b8062fdd58e14610177578063017bfd161461019d57806301ffc9a7146101a557806302fe5305146101c8578063044873f4146101dd57806305c6554a146101fd575b600080fd5b61018a610185366004610f24565b61035a565b6040519081526020015b60405180910390f35b61018a600781565b6101b86101b3366004610f64565b610382565b6040519015158152602001610194565b6101db6101d6366004611027565b6103d2565b005b61018a6101eb366004611078565b60046020526000908152604090205481565b61018a600581565b610218610213366004611078565b6103e6565b60405161019491906110d7565b6101db610233366004611199565b61047a565b61025f7f000000000000000000000000000000000000000000000000000000000000000081565b6040516001600160a01b039091168152602001610194565b61018a600181565b61029261028d366004611243565b6104e6565b604051610194919061133e565b61018a600481565b6101db6105bb565b61018a600981565b61018a600281565b6003546001600160a01b031661025f565b6101db6102de36600461135f565b6105cf565b61018a600381565b61018a600881565b61018a600681565b6101db610309366004611396565b6105de565b6101b861031c3660046113b8565b610793565b6101db61032f3660046113eb565b6107c1565b6101db610342366004611450565b610820565b6101db610355366004611396565b61085b565b6000818152602081815260408083206001600160a01b03861684529091529020545b92915050565b60006001600160e01b03198216636cdb3d1360e11b14806103b357506001600160e01b031982166303a24d0760e21b145b8061037c57506301ffc9a760e01b6001600160e01b031983161461037c565b6103da610875565b6103e3816108a2565b50565b6060600280546103f59061146b565b80601f01602080910402602001604051908101604052809291908181526020018280546104219061146b565b801561046e5780601f106104435761010080835404028352916020019161046e565b820191906000526020600020905b81548152906001019060200180831161045157829003601f168201915b50505050509050919050565b336001600160a01b038616811480159061049b57506104998682610793565b155b156104d15760405163711bec9160e11b81526001600160a01b038083166004830152871660248201526044015b60405180910390fd5b6104de86868686866108ae565b505050505050565b606081518351146105175781518351604051635b05999160e01b8152600481019290925260248201526044016104c8565b6000835167ffffffffffffffff81111561053357610533610f88565b60405190808252806020026020018201604052801561055c578160200160208202803683370190505b50905060005b84518110156105b3576020808202860101516105869060208084028701015161035a565b828281518110610598576105986114a5565b60209081029190910101526105ac816114d1565b9050610562565b509392505050565b6105c3610875565b6105cd6000610915565b565b6105da338383610967565b5050565b6000811161062e5760405162461bcd60e51b815260206004820152601e60248201527f4d75737420627579206174206c65617374206f6e65206672616374696f6e000060448201526064016104c8565b6000828152600460205260408120546106489083906114ea565b905081610655308561035a565b101561069a5760405162461bcd60e51b81526020600482015260146024820152734e6f7420656e6f756768206672616374696f6e7360601b60448201526064016104c8565b6040516323b872dd60e01b8152336004820152306024820152604481018290527f00000000000000000000000000000000000000000000000000000000000000006001600160a01b0316906323b872dd906064016020604051808303816000875af115801561070d573d6000803e3d6000fd5b505050506040513d601f19601f820116820180604052508101906107319190611501565b6107725760405162461bcd60e51b8152602060048201526012602482015271119b1e481c185e5b595b9d0819985a5b195960721b60448201526064016104c8565b61078e30338585604051806020016040528060008152506109fd565b505050565b6001600160a01b03918216600090815260016020908152604080832093909416825291909152205460ff1690565b336001600160a01b03861681148015906107e257506107e08682610793565b155b156108135760405163711bec9160e11b81526001600160a01b038083166004830152871660248201526044016104c8565b6104de86868686866109fd565b610828610875565b6001600160a01b03811661085257604051631e4fbdf760e01b8152600060048201526024016104c8565b6103e381610915565b610863610875565b60009182526004602052604090912055565b6003546001600160a01b031633146105cd5760405163118cdaa760e01b81523360048201526024016104c8565b60026105da8282611564565b6001600160a01b0384166108d857604051632bfa23e760e11b8152600060048201526024016104c8565b6001600160a01b03851661090157604051626a0d4560e21b8152600060048201526024016104c8565b61090e8585858585610a8b565b5050505050565b600380546001600160a01b038381166001600160a01b0319831681179093556040519116919082907f8be0079c531659141344cd1fd0a4f28419497f9722a3daafe3b4186f6b6457e090600090a35050565b6001600160a01b0382166109905760405162ced3e160e81b8152600060048201526024016104c8565b6001600160a01b03838116600081815260016020908152604080832094871680845294825291829020805460ff191686151590811790915591519182527f17307eab39ab6107e8899845ad3d59bd9653f200f220920489ca2b5937696c31910160405180910390a3505050565b6001600160a01b038416610a2757604051632bfa23e760e11b8152600060048201526024016104c8565b6001600160a01b038516610a5057604051626a0d4560e21b8152600060048201526024016104c8565b60408051600180825260208201869052818301908152606082018590526080820190925290610a828787848487610a8b565b50505050505050565b610a9785858585610ade565b6001600160a01b0384161561090e5782513390600103610ad05760208481015190840151610ac9838989858589610cfb565b50506104de565b6104de818787878787610e1f565b8051825114610b0d5781518151604051635b05999160e01b8152600481019290925260248201526044016104c8565b3360005b8351811015610c1c576020818102858101820151908501909101516001600160a01b03881615610bc4576000828152602081815260408083206001600160a01b038c16845290915290205481811015610b9d576040516303dee4c560e01b81526001600160a01b038a1660048201526024810182905260448101839052606481018490526084016104c8565b6000838152602081815260408083206001600160a01b038d16845290915290209082900390555b6001600160a01b03871615610c09576000828152602081815260408083206001600160a01b038b16845290915281208054839290610c03908490611624565b90915550505b505080610c15906114d1565b9050610b11565b508251600103610c9d5760208301516000906020840151909150856001600160a01b0316876001600160a01b0316846001600160a01b03167fc3d58168c5ae7397731d063d5bbf3d657854427343f4c083240f7aacaa2d0f628585604051610c8e929190918252602082015260400190565b60405180910390a4505061090e565b836001600160a01b0316856001600160a01b0316826001600160a01b03167f4a39dc06d4c0dbc64b70af90fd698a233a518aa5d07e595d983b8c0526c8f7fb8686604051610cec929190611637565b60405180910390a45050505050565b6001600160a01b0384163b156104de5760405163f23a6e6160e01b81526001600160a01b0385169063f23a6e6190610d3f9089908990889088908890600401611665565b6020604051808303816000875af1925050508015610d7a575060408051601f3d908101601f19168201909252610d77918101906116aa565b60015b610de3573d808015610da8576040519150601f19603f3d011682016040523d82523d6000602084013e610dad565b606091505b508051600003610ddb57604051632bfa23e760e11b81526001600160a01b03861660048201526024016104c8565b805181602001fd5b6001600160e01b0319811663f23a6e6160e01b14610a8257604051632bfa23e760e11b81526001600160a01b03861660048201526024016104c8565b6001600160a01b0384163b156104de5760405163bc197c8160e01b81526001600160a01b0385169063bc197c8190610e6390899089908890889088906004016116c7565b6020604051808303816000875af1925050508015610e9e575060408051601f3d908101601f19168201909252610e9b918101906116aa565b60015b610ecc573d808015610da8576040519150601f19603f3d011682016040523d82523d6000602084013e610dad565b6001600160e01b0319811663bc197c8160e01b14610a8257604051632bfa23e760e11b81526001600160a01b03861660048201526024016104c8565b80356001600160a01b0381168114610f1f57600080fd5b919050565b60008060408385031215610f3757600080fd5b610f4083610f08565b946020939093013593505050565b6001600160e01b0319811681146103e357600080fd5b600060208284031215610f7657600080fd5b8135610f8181610f4e565b9392505050565b634e487b7160e01b600052604160045260246000fd5b604051601f8201601f1916810167ffffffffffffffff81118282101715610fc757610fc7610f88565b604052919050565b600067ffffffffffffffff831115610fe957610fe9610f88565b610ffc601f8401601f1916602001610f9e565b905082815283838301111561101057600080fd5b828260208301376000602084830101529392505050565b60006020828403121561103957600080fd5b813567ffffffffffffffff81111561105057600080fd5b8201601f8101841361106157600080fd5b61107084823560208401610fcf565b949350505050565b60006020828403121561108a57600080fd5b5035919050565b6000815180845260005b818110156110b75760208185018101518683018201520161109b565b506000602082860101526020601f19601f83011685010191505092915050565b602081526000610f816020830184611091565b600067ffffffffffffffff82111561110457611104610f88565b5060051b60200190565b600082601f83011261111f57600080fd5b8135602061113461112f836110ea565b610f9e565b82815260059290921b8401810191818101908684111561115357600080fd5b8286015b8481101561116e5780358352918301918301611157565b509695505050505050565b600082601f83011261118a57600080fd5b610f8183833560208501610fcf565b600080600080600060a086880312156111b157600080fd5b6111ba86610f08565b94506111c860208701610f08565b9350604086013567ffffffffffffffff808211156111e557600080fd5b6111f189838a0161110e565b9450606088013591508082111561120757600080fd5b61121389838a0161110e565b9350608088013591508082111561122957600080fd5b5061123688828901611179565b9150509295509295909350565b6000806040838503121561125657600080fd5b823567ffffffffffffffff8082111561126e57600080fd5b818501915085601f83011261128257600080fd5b8135602061129261112f836110ea565b82815260059290921b840181019181810190898411156112b157600080fd5b948201945b838610156112d6576112c786610f08565b825294820194908201906112b6565b965050860135925050808211156112ec57600080fd5b506112f98582860161110e565b9150509250929050565b600081518084526020808501945080840160005b8381101561133357815187529582019590820190600101611317565b509495945050505050565b602081526000610f816020830184611303565b80151581146103e357600080fd5b6000806040838503121561137257600080fd5b61137b83610f08565b9150602083013561138b81611351565b809150509250929050565b600080604083850312156113a957600080fd5b50508035926020909101359150565b600080604083850312156113cb57600080fd5b6113d483610f08565b91506113e260208401610f08565b90509250929050565b600080600080600060a0868803121561140357600080fd5b61140c86610f08565b945061141a60208701610f08565b93506040860135925060608601359150608086013567ffffffffffffffff81111561144457600080fd5b61123688828901611179565b60006020828403121561146257600080fd5b610f8182610f08565b600181811c9082168061147f57607f821691505b60208210810361149f57634e487b7160e01b600052602260045260246000fd5b50919050565b634e487b7160e01b600052603260045260246000fd5b634e487b7160e01b600052601160045260246000fd5b6000600182016114e3576114e36114bb565b5060010190565b808202811582820484141761037c5761037c6114bb565b60006020828403121561151357600080fd5b8151610f8181611351565b601f82111561078e57600081815260208120601f850160051c810160208610156115455750805b601f850160051c820191505b818110156104de57828155600101611551565b815167ffffffffffffffff81111561157e5761157e610f88565b6115928161158c845461146b565b8461151e565b602080601f8311600181146115c757600084156115af5750858301515b600019600386901b1c1916600185901b1785556104de565b600085815260208120601f198616915b828110156115f6578886015182559484019460019091019084016115d7565b50858210156116145787850151600019600388901b60f8161c191681555b5050505050600190811b01905550565b8082018082111561037c5761037c6114bb565b60408152600061164a6040830185611303565b828103602084015261165c8185611303565b95945050505050565b6001600160a01b03868116825285166020820152604081018490526060810183905260a06080820181905260009061169f90830184611091565b979650505050505050565b6000602082840312156116bc57600080fd5b8151610f8181610f4e565b6001600160a01b0386811682528516602082015260a0604082018190526000906116f390830186611303565b82810360608401526117058186611303565b905082810360808401526117198185611091565b9897505050505050505056fea2646970667358221220015123ae68e054021fc1ff377769211741c92ca2709fd43c53d19b0aaa0cdfc864736f6c63430008140033",
  "linkReferences": {},
  "deployedLinkReferences": {}
}