{
  "_format": "hh-sol-artifact-1",
  "contractName": "FlyToken",
  "sourceName": "contracts/FlyToken.sol",
  "abi": [
    {
      "inputs": [],
      "stateMutability": "nonpayable",
      "type": "constructor"
    },
    {
      "inputs": [
        {
          "internalType": "address",
          "name": "spender",
          "type": "address"
        },
        {
          "internalType": "uint256",
          "name": "allowance",
          "type": "uint256"
        },
        {
          "internalType": "uint256",
          "name": "needed",
          "type": "uint256"
        }
      ],
      "name": "ERC20InsufficientAllowance",
      "type": "error"
    },
    {
      "inputs": [
        {
          "internalType": "address",
          "name": "sender",
          "type": "address"
        },
        {
          "internalType": "uint256",
          "name": "balance",
          "type": "uint256"
        },
        {
          "internalType": "uint256",
          "name": "needed",
          "type": "uint256"
        }
      ],
      "name": "ERC20InsufficientBalance",
      "type": "error"
    },
    {
      "inputs": [
        {
          "internalType": "address",
          "name": "approver",
          "type": "address"
        }
      ],
      "name": "ERC20InvalidApprover",
      "type": "error"
    },
    {
      "inputs": [
        {
          "internalType": "address",
          "name": "receiver",
          "type": "address"
        }
      ],
      "name": "ERC20InvalidReceiver",
      "type": "error"
    },
    {
      "inputs": [
        {
          "internalType": "address",
          "name": "sender",
          "type": "address"
        }
      ],
      "name": "ERC20InvalidSender",
      "type": "error"
    },
    {
      "inputs": [
        {
          "internalType": "address",
          "name": "spender",
          "type": "address"
        }
      ],
      "name": "ERC20InvalidSpender",
      "type": "error"
    },
    {
      "inputs": [
        {
          "internalType": "address",
          "name": "owner",
          "type": "address"
        }
      ],
      "name": "OwnableInvalidOwner",
      "type": "error"
    },
    {
      "inputs": [
        {
          "internalType": "address",
          "name": "account",
          "type": "address"
        }
      ],
      "name": "OwnableUnauthorizedAccount",
      "type": "error"
    },
    {
      "anonymous": false,
      "inputs": [
        {
          "indexed": true,
          "internalType": "address",
          "name": "owner",
          "type": "address"
        },
        {
          "indexed": true,
          "internalType": "address",
          "name": "spender",
          "type": "address"
        },
        {
          "indexed": false,
          "internalType": "uint256",
          "name": "value",
          "type": "uint256"
        }
      ],
      "name": "Approval",
      "type": "event"
    },
    {
      "anonymous": false,
      "inputs": [
        {
          "indexed": true,
          "internalType": "address",
          "name": "previousOwner",
          "type": "address"
        },
        {
          "indexed": true,
          "internalType": "address",
          "name": "newOwner",
          "type": "address"
        }
      ],
      "name": "OwnershipTransferred",
      "type": "event"
    },
    {
      "anonymous": false,
      "inputs": [
        {
          "indexed": true,
          "internalType": "address",
          "name": "from",
          "type": "address"
        },
        {
          "indexed": true,
          "internalType": "address",
          "name": "to",
          "type": "address"
        },
        {
          "indexed": false,
          "internalType": "uint256",
          "name": "value",
          "type": "uint256"
        }
      ],
      "name": "Transfer",
      "type": "event"
    },
    {
      "inputs": [],
      "name": "INITIAL_SUPPLY",
      "outputs": [
        {
          "internalType": "uint256",
          "name": "",
          "type": "uint256"
        }
      ],
      "stateMutability": "view",
      "type": "function"
    },
    {
      "inputs": [],
      "name": "MIN_SUPPLY",
      "outputs": [
        {
          "internalType": "uint256",
          "name": "",
          "type": "uint256"
        }
      ],
      "stateMutability": "view",
      "type": "function"
    },
    {
      "inputs": [
        {
          "internalType": "address",
          "name": "owner",
          "type": "address"
        },
        {
          "internalType": "address",
          "name": "spender",
          "type": "address"
        }
      ],
      "name": "allowance",
      "outputs": [
        {
          "internalType": "uint256",
          "name": "",
          "type": "uint256"
        }
      ],
      "stateMutability": "view",
      "type": "function"
    },
    {
      "inputs": [
        {
          "internalType": "address",
          "name": "spender",
          "type": "address"
        },
        {
          "internalType": "uint256",
          "name": "value",
          "type": "uint256"
        }
      ],
      "name": "approve",
      "outputs": [
        {
          "internalType": "bool",
          "name": "",
          "type": "bool"
        }
      ],
      "stateMutability": "nonpayable",
      "type": "function"
    },
    {
      "inputs": [
        {
          "internalType": "address",
          "name": "account",
          "type": "address"
        }
      ],
      "name": "balanceOf",
      "outputs": [
        {
          "internalType": "uint256",
          "name": "",
          "type": "uint256"
        }
      ],
      "stateMutability": "view",
      "type": "function"
    },
    {
      "inputs": [],
      "name": "burnRateBasisPoints",
      "outputs": [
        {
          "internalType": "uint256",
          "name": "",
          "type": "uint256"
        }
      ],
      "stateMutability": "view",
      "type": "function"
    },
    {
      "inputs": [],
      "name": "decimals",
      "outputs": [
        {
          "internalType": "uint8",
          "name": "",
          "type": "uint8"
        }
      ],
      "stateMutability": "view",
      "type": "function"
    },
    {
      "inputs": [],
      "name": "name",
      "outputs": [
        {
          "internalType": "string",
          "name": "",
          "type": "string"
        }
      ],
      "stateMutability": "view",
      "type": "function"
    },
    {
      "inputs": [],
      "name": "owner",
      "outputs": [
        {
          "internalType": "address",
          "name": "",
          "type": "address"
        }
      ],
      "stateMutability": "view",
      "type": "function"
    },
    {
      "inputs": [],
      "name": "renounceOwnership",
      "outputs": [],
      "stateMutability": "nonpayable",
      "type": "function"
    },
    {
      "inputs": [],
      "name": "symbol",
      "outputs": [
        {
          "internalType": "string",
          "name": "",
          "type": "string"
        }
      ],
      "stateMutability": "view",
      "type": "function"
    },
    {
      "inputs": [],
      "name": "totalSupply",
      "outputs": [
        {
          "internalType": "uint256",
          "name": "",
          "type": "uint256"
        }
      ],
      "stateMutability": "view",
      "type": "function"
    },
    {
      "inputs": [
        {
          "internalType": "address",
          "name": "to",
          "type": "address"
        },
        {
          "internalType": "uint256",
          "name": "value",
          "type": "uint256"
        }
      ],
      "name": "transfer",
      "outputs": [
        {
          "internalType": "bool",
          "name": "",
          "type": "bool"
        }
      ],
      "stateMutability": "nonpayable",
      "type": "function"
    },
    {
      "inputs": [
        {
          "internalType": "address",
          "name": "from",
          "type": "address"
        },
        {
          "internalType": "address",
          "name": "to",
          "type": "address"
        },
        {
          "internalType": "uint256",
          "name": "value",
          "type": "uint256"
        }
      ],
      "name": "transferFrom",
      "outputs": [
        {
          "internalType": "bool",
          "name": "",
          "type": "bool"
        }
      ],
      "stateMutability": "nonpayable",
      "type": "function"
    },
    {
      "inputs": [
        {
          "internalType": "address",
          "name": "newOwner",
          "type": "address"
        }
      ],
      "name": "transferOwnership",
      "outputs": [],
      "stateMutability": "nonpayable",
      "type": "function"
    }
  ],
  "bytecode": "0x608060405260646006553480156200001657600080fd5b50336040518060400160405280600881526020016723363caa37b5b2b760c11b81525060405180604001604052806003815260200162464c5960e81b815250816003908162000066919062000423565b50600462000075828262000423565b5050506001600160a01b038116620000a857604051631e4fbdf760e01b8152600060048201526024015b60405180910390fd5b620000b381620000d1565b50620000cb336a084595161401484a00000062000123565b62000574565b600580546001600160a01b038381166001600160a01b0319831681179093556040519116919082907f8be0079c531659141344cd1fd0a4f28419497f9722a3daafe3b4186f6b6457e090600090a35050565b6001600160a01b0382166200014f5760405163ec442f0560e01b8152600060048201526024016200009f565b6200015d6000838362000161565b5050565b6001600160a01b038316158015906200018257506001600160a01b03821615155b156200023a5760006200019460025490565b905060006a01a784379d99db42000000821115620002065761271060065484620001bf919062000505565b620001cb919062000525565b90506a01a784379d99db42000000620001e5828462000548565b10156200020657620002036a01a784379d99db420000008362000548565b90505b80156200021b576200021b856000836200024c565b6200023385856200022d848762000548565b6200024c565b5050505050565b620002478383836200024c565b505050565b6001600160a01b0383166200027b5780600260008282546200026f91906200055e565b90915550620002ef9050565b6001600160a01b03831660009081526020819052604090205481811015620002d05760405163391434e360e21b81526001600160a01b038516600482015260248101829052604481018390526064016200009f565b6001600160a01b03841660009081526020819052604090209082900390555b6001600160a01b0382166200030d576002805482900390556200032c565b6001600160a01b03821660009081526020819052604090208054820190555b816001600160a01b0316836001600160a01b03167fddf252ad1be2c89b69c2b068fc378daa952ba7f163c4a11628f55a4df523b3ef836040516200037291815260200190565b60405180910390a3505050565b634e487b7160e01b600052604160045260246000fd5b600181811c90821680620003aa57607f821691505b602082108103620003cb57634e487b7160e01b600052602260045260246000fd5b50919050565b601f8211156200024757600081815260208120601f850160051c81016020861015620003fa5750805b601f850160051c820191505b818110156200041b5782815560010162000406565b505050505050565b81516001600160401b038111156200043f576200043f6200037f565b620004578162000450845462000395565b84620003d1565b602080601f8311600181146200048f5760008415620004765750858301515b600019600386901b1c1916600185901b1785556200041b565b600085815260208120601f198616915b82811015620004c0578886015182559484019460019091019084016200049f565b5085821015620004df5787850151600019600388901b60f8161c191681555b5050505050600190811b01905550565b634e487b7160e01b600052601160045260246000fd5b80820281158282048414176200051f576200051f620004ef565b92915050565b6000826200054357634e487b7160e01b600052601260045260246000fd5b500490565b818103818111156200051f576200051f620004ef565b808201808211156200051f576200051f620004ef565b6109d880620005846000396000f3fe608060405234801561001057600080fd5b50600436106100f55760003560e01c806352328aa51161009757806395d89b411161006657806395d89b41146101ea578063a9059cbb146101f2578063dd62ed3e14610205578063f2fde38b1461023e57600080fd5b806352328aa51461019357806370a082311461019c578063715018a6146101c55780638da5cb5b146101cf57600080fd5b806323b872dd116100d357806323b872dd1461014d5780632ff2e9dc14610160578063313ce5671461017257806335917c641461018157600080fd5b806306fdde03146100fa578063095ea7b31461011857806318160ddd1461013b575b600080fd5b610102610251565b60405161010f91906107ce565b60405180910390f35b61012b610126366004610838565b6102e3565b604051901515815260200161010f565b6002545b60405190815260200161010f565b61012b61015b366004610862565b6102fd565b61013f6a084595161401484a00000081565b6040516012815260200161010f565b61013f6a01a784379d99db4200000081565b61013f60065481565b61013f6101aa36600461089e565b6001600160a01b031660009081526020819052604090205490565b6101cd610321565b005b6005546040516001600160a01b03909116815260200161010f565b610102610335565b61012b610200366004610838565b610344565b61013f6102133660046108c0565b6001600160a01b03918216600090815260016020908152604080832093909416825291909152205490565b6101cd61024c36600461089e565b610352565b606060038054610260906108f3565b80601f016020809104026020016040519081016040528092919081815260200182805461028c906108f3565b80156102d95780601f106102ae576101008083540402835291602001916102d9565b820191906000526020600020905b8154815290600101906020018083116102bc57829003601f168201915b5050505050905090565b6000336102f1818585610395565b60019150505b92915050565b60003361030b8582856103a7565b610316858585610425565b506001949350505050565b610329610484565b61033360006104b1565b565b606060048054610260906108f3565b6000336102f1818585610425565b61035a610484565b6001600160a01b03811661038957604051631e4fbdf760e01b8152600060048201526024015b60405180910390fd5b610392816104b1565b50565b6103a28383836001610503565b505050565b6001600160a01b03838116600090815260016020908152604080832093861683529290522054600019811461041f578181101561041057604051637dc7a0d960e11b81526001600160a01b03841660048201526024810182905260448101839052606401610380565b61041f84848484036000610503565b50505050565b6001600160a01b03831661044f57604051634b637e8f60e11b815260006004820152602401610380565b6001600160a01b0382166104795760405163ec442f0560e01b815260006004820152602401610380565b6103a28383836105d8565b6005546001600160a01b031633146103335760405163118cdaa760e01b8152336004820152602401610380565b600580546001600160a01b038381166001600160a01b0319831681179093556040519116919082907f8be0079c531659141344cd1fd0a4f28419497f9722a3daafe3b4186f6b6457e090600090a35050565b6001600160a01b03841661052d5760405163e602df0560e01b815260006004820152602401610380565b6001600160a01b03831661055757604051634a1406b160e11b815260006004820152602401610380565b6001600160a01b038085166000908152600160209081526040808320938716835292905220829055801561041f57826001600160a01b0316846001600160a01b03167f8c5be1e5ebec7d5bd14f71427d1e84f3dd0314c0f7b2291e5b200ac8c7c3b925846040516105ca91815260200190565b60405180910390a350505050565b6001600160a01b038316158015906105f857506001600160a01b03821615155b1561069d57600061060860025490565b905060006a01a784379d99db4200000082111561067057612710600654846106309190610943565b61063a919061095a565b90506a01a784379d99db42000000610652828461097c565b10156106705761066d6a01a784379d99db420000008361097c565b90505b801561068257610682856000836106a4565b6106968585610691848761097c565b6106a4565b5050505050565b6103a28383835b6001600160a01b0383166106cf5780600260008282546106c4919061098f565b909155506107419050565b6001600160a01b038316600090815260208190526040902054818110156107225760405163391434e360e21b81526001600160a01b03851660048201526024810182905260448101839052606401610380565b6001600160a01b03841660009081526020819052604090209082900390555b6001600160a01b03821661075d5760028054829003905561077c565b6001600160a01b03821660009081526020819052604090208054820190555b816001600160a01b0316836001600160a01b03167fddf252ad1be2c89b69c2b068fc378daa952ba7f163c4a11628f55a4df523b3ef836040516107c191815260200190565b60405180910390a3505050565b600060208083528351808285015260005b818110156107fb578581018301518582016040015282016107df565b506000604082860101526040601f19601f8301168501019250505092915050565b80356001600160a01b038116811461083357600080fd5b919050565b6000806040838503121561084b57600080fd5b6108548361081c565b946020939093013593505050565b60008060006060848603121561087757600080fd5b6108808461081c565b925061088e6020850161081c565b9150604084013590509250925092565b6000602082840312156108b057600080fd5b6108b98261081c565b9392505050565b600080604083850312156108d357600080fd5b6108dc8361081c565b91506108ea6020840161081c565b90509250929050565b600181811c9082168061090757607f821691505b60208210810361092757634e487b7160e01b600052602260045260246000fd5b50919050565b634e487b7160e01b600052601160045260246000fd5b80820281158282048414176102f7576102f761092d565b60008261097757634e487b7160e01b600052601260045260246000fd5b500490565b818103818111156102f7576102f761092d565b808201808211156102f7576102f761092d56fea26469706673582212206a2aa008f7fc546d446ca65bc12a0b7e26e08513649872c036a4cea7dd427ab164736f6c63430008140033",
  "linkReferences": {},
  "deployedLinkReferences": {}
}